:060000000C9432000C9488
:1000060000000C9400000C9400000C9400000C946A
:1000160000000C9400000C9400000C949F000C94BB
:100026005F000C9400000C9400000C9400000C94EB
:1000360000000C9400000C9400000C9400000C943A
:1000460000000C9400000C9400000C9400000300C7
:100056000000030000000800040054000000F894AB
:10006600EE27ECBBF1E0FBBFEBBFE5BF8DE0A2E006
:10007600BB27ED938A95E9F780E094E0A0E6ED933F
:100086000197E9F7ECE5F0E085919591009761F02D
:10009600A591B59105901590BF01F00105900D92BF
:1000A6000197E1F7FB01F0CFEFE5EDBFE4E0EEBF2E
:1000B600C0E6D1E00C94E4000A921A92FA926A938E
:1000C6007A938A939A93AA93BA93EA93FA93EFB799
:1000D600EA93E5B3AFEFEA276E2E7724EFEFE62536
:1000E600E5BBF201D1D0DF0186D0E2BBF201319748
:1000F6002F010024401450041CF4E3E0F0E02F012B
:1001060075946794062C072819F4E8E0F0E03F019F
:10011600EFEF6E2665BA6E26E0E0E2BFE991EFBF2B
:10012600F991E991B991A9919991899179916991F9
:10013600F9901990099018950A92AA93BA93EA939E
:10014600FA93EFB7EA93F50131965F01E3EAF0E03F
:10015600EA15FB0551F5E0916601F09167013196CC
:10016600E0936601F0936701002480149004C4F0C4
:10017600F4018AD0EA30A0E0FA0771F4F40131976D
:100186008CD0ED91FD913196FE93EE93F40185D0DE
:10019600E0E0F0E0ED93FC93F40131974F01E4CFFA
:1001A600E3E0F0E04F01AA24BB24EFEFEDBDE0EF62
:1001B600ECBDE991EFBFF991E991B991A991099047
:1001C6001895EFEFE1BBE4BBE0E0E2BBEFEEE5BB89
:1001D600E5E0E9BFE3BFE0E0E2BFECBFEFBDE5E08D
:1001E600EEBDEFEFEDBDE0EFECBDE0E0E5BFE4BF57
:1001F6007894FFCFFFCFBA93AA93E881F98130971D
:1002060019F4EFE3F0E03EC0E130A0E0FA0719F49C
:10021600E6E0F0E037C0E230A0E0FA0719F4EBE5DB
:10022600F0E030C0E330A0E0FA0719F4EFE4F0E0C4
:1002360029C0E430A0E0FA0719F4E6E6F0E022C0AF
:10024600E530A0E0FA0719F4EDE6F0E01BC0E63071
:10025600A0E0FA0719F4EDE7F0E014C0E730A0E0FB
:10026600FA0719F4E7E0F0E00DC0E830A0E0FA077D
:1002760019F4EFE7F0E006C0E930A0E0FA0711F460
:10028600EFE6F0E022960895A0E6B1E0EE0FFF1F3C
:10029600AE0FBF1F0E9457010895A0E6B1E0EE0F12
:1002A600FF1FAE0FBF1F0895ED91FC9111970895A2
:00000001FF
