:0C0000000C942F000C9400000C940000E5
:10000C000C9400000C9400000C9400000C94000064
:10001C000C9400000C9400000C9400000C94000054
:10002C000C9400000C9400000C9400000C94000044
:10003C000C9400000C9400000C9400000C94000034
:10004C000C9400000C94000000000200040054000A
:10005C000000F894EE27ECBBF1E0FBBFEBBFE5BF73
:10006C008DE0A2E0BB27ED938A95E9F780E094E060
:10007C00A0E6ED930197E9F7E6E5F0E0859195911F
:10008C00009761F0A591B59105901590BF01F00115
:10009C0005900D920197E1F7FB01F0CFEFE5EDBF75
:1000AC00E4E0EEBFC0E6D1E00C945C00EFEFE4BB03
:1000BC00E1BBA89AD20111D0E2BBA4E6B0E00E9449
:1000CC00BC00F20131962F01E9E0F0E0E415F505F2
:1000DC0014F444245524EECFFFCFBA93AA93E881AD
:1000EC00F981309719F4E0E4F0E03EC0E130A0E093
:1000FC00FA0719F4E9E7F0E037C0E230A0E0FA07BC
:10010C0019F4E4E2F0E030C0E330A0E0FA0719F4AF
:10011C00E0E3F0E029C0E430A0E0FA0719F4E9E1EB
:10012C00F0E022C0E530A0E0FA0719F4E2E1F0E0DB
:10013C001BC0E630A0E0FA0719F4E2E0F0E014C0CE
:10014C00E730A0E0FA0719F4E8E7F0E00DC0E8307A
:10015C00A0E0FA0719F4E0E0F0E006C0E930A0E016
:10016C00FA0711F4E8E1F0E022960895109639F0C0
:10017C0080ED97E00197F1F7A8951197C9F70895CD
:00000001FF
