:040000000C944D000F
:100004000C9400000C9400000C9400000C948B00E1
:100014000C9400000C9400000C9400000C9400005C
:100024000C9400000C9400000C9400000C9400004C
:100034000C9400000C9400000C9400000C9400003C
:100044000C9400000C9400000C9400000C9400002C
:100054001027E80364000A000100001000011000EA
:10006400010000000000000030303A30303A3030F7
:1000740000253032643A253032643A253032640047
:1000840080C0060004006600090060016C000200E4
:10009400690184000000F894EE27ECBBF1E0FBBF9B
:1000A400EBBFE5BF8DE0A2E0BB27ED938A95E9F7AE
:1000B40080E094E0A0E6ED930197E9F7E6E8F0E04C
:1000C40085919591009761F0A591B5910590159052
:1000D400BF01F00105900D920197E1F7FB01F0CF0C
:1000E400EFE5EDBFE4E0EEBFC0E6D1E00C947A00AA
:1000F400A0E1C3D0E0E4E9BFE8BF7894E8E0E2BD62
:10010400E0E0E4BDE5E0E5BDA0E6B1E0A5D0FFCFC9
:10011400FFCF0A921A92FA926A937A938A939A93E5
:10012400AA93BA93EA93FA93EFB7EA932897F20162
:1001340031962F01ECE3F0E0E415F505B1F4442425
:100144005524F30131963F01ECE3F0E0E615F705A1
:1001540061F466247724F40131964F01E8E1F0E07C
:10016400E815F90511F488249924FE01FA93EA9319
:10017400E5E7F0E0FA93EA93F4010E942E03F30119
:100184000E942E03F2010E942E038CE00E94E102E1
:100194006096E0E0EA93A0E031D0DE015DD02896DD
:1001A400E991EFBFF991E991B991A9919991899157
:1001B40079916991F990199009901895AA93E2B3ED
:1001C400EF70AE2FE881E07FEA2BE2BB8DE08A95E9
:1001D400F1F7929A8DE08A95F1F792988DE08A95DD
:1001E400F1F777C0AA93A881E9DFE881E295E88373
:1001F400A881E4DF85E88A95F1F76BC0AA93E881CA
:10020400F0E0E759FE4FE081A981AE0FEBDFB98042
:10021400A88022960895A2E00E943303ACE0E2DFB6
:10022400A1E00E943303E0E0AE2EBE2E0895AA930F
:10023400A881AA3011F0BD1448F0E0E0EA93A39439
:10024400AA2DDCDFA881AA3009F443C0B394909AA4
:10025400A881C8DF90983DC0BA93AA931A93A98144
:10026400BA81ED91A983BA831E2FE03019F0A12F32
:10027400DEDFF5CF188123960895AA93E1B3E06FEA
:10028400E1BB8A9A889A899A929890989198D88092
:10029400E881E058E0936B01E881E054E0936C015D
:1002A400A4E1B0E00E946D030E9439030E94390367
:1002B4000E943903A0E282DF88EC90E00197F1F715
:1002C400A8E290DFA4E08EDFA5E88CDFA6E08ADF59
:1002D400A2DF21960895BA93AA931A930A93AA8146
:1002E400BB8112960E947F03309759F1AA81BB818A
:1002F40014960E947F038F01309761F00230E0E092
:100304001E0798F0F80131978F01AA81BB811496DA
:10031400ED93FC93AA81BB811296ED91FD913196E8
:10032400FE93EE933197AC81A083AA81BB810E9496
:100334007F03FF232AF0ED91FD913196FE93EE9316
:1003440006C0AA81BB81EFEFFFEFED93FC93198107
:10035400088125960895BA93AA9326970E948C0340
:1003640010E0AC85BD85E0E0F0E0ED93FC93EA8914
:10037400FB893196EA8BFB8B3197E4912E2FE03089
:1003840009F415C1E12FE03039F4253211F411E0FC
:1003940002C00E9441030AC1E130A9F4253219F4D4
:1003A4000E94410302C112E040E000E02D3211F44A
:1003B40001E0FCC02B3211F44BE2F8C0203211F4FE
:1003C40040E2F4C002C0E23039F450E013E02033DC
:1003D40011F40068EBC003C0E33009F0E7C0203338
:1003E40010F02A3308F007C0AAE05A9F502DE22FDC
:1003F400E0535E0FDBC0E22FE33649F40E9448036A
:10040400E889F989A481AA930E944E03CEC0E337F8
:1004140041F40E9448030E9454030E9415031E2FB6
:100424000AC0E03761F40E9448030E9454030E940A
:1004340021031E2F086002600F7730E034C0E436D9
:1004440011F0E93611F4046002C0E53731F4E4E553
:10045400F0E0EE83FF8315E00CC0E83511F408608A
:1004640003C0E83709F0A1C0EEE5F0E0EE83FF83B6
:1004740014E002FF14C00E9448030E945E03AB858F
:10048400AA233AF4EA85FB850E947B03EA87FB876B
:100494004DE2403011F01F5F01C00B7F04C00E9489
:1004A40048030E945E0300FD11C0151778F407FF8E
:1004B40008C002FF04C00B7F242F115001C020E3A9
:1004C40001C020E20E9441035150EFCF312F01FFC0
:1004D40017C03030A1F003FF06C0EE81FF812591E3
:1004E400EE83FF8305C0AE81BF812D91AE83BF83B0
:1004F4000E944103503009F051503150EACF4BC0B3
:1005040020E3EE81FF810E948303E887F987EE816F
:10051400FF813296EE83FF83E885F985AA85BB8542
:10052400AE17BF0750F02F5FA885B985EA85FB8514
:10053400EA1BFB0BEA87FB87EFCF2A3328F003FF84
:1005440002C0295F01C0295D04FD1AC0213320F4D3
:10055400A885B985119709F409C0531710F000FF55
:1005640001C013C020E207FF0BC020E3006102FFBB
:1005740007C00B7F4A930E944E03503009F051503C
:100584000E944103503009F051503150A885B9857B
:10059400129708F0B5CF00FF08C0503031F0515029
:1005A400E0E2EA930E944E03F8CF10E0E0CEAC857F
:1005B400BD850E947F030E94930364960895FF9271
:1005C400F82E26970E948E030E946603309719F432
:1005D400EFEFFFEF23C0DE0116960E9477038D0133
:1005E4000E946603EE83FF83E0E0E887E987DE018B
:1005F4001A960E9477030E947F03FA93EA931A9350
:100604000A93EDE6F1E0FA93EA93DE011A96A3DE8B
:100614009F01AE81BF81E0E0EC93F9010E94950354
:100624002A96FF900895BA93AA93A991B991EE27B7
:10063400FF276D91662311F03196FBCF0895BA938D
:10064400AA93AA27BB27E991F9910590002011F0FC
:100654001196FBCFFD010895662777270E94870333
:1006640008950E94F400A3E0B0E00C946D03A0E3AD
:100674000E94E00088EC90E00197F1F708952A9336
:10068400AD85BE85EF85F88909950895E889F989CE
:100694003497E88BF98B0895AD85BE85EF85F8898D
:1006A40009950895A889B98914960E947F03EE8359
:1006B400FF83AE81BF810895A889B98914960E94E9
:1006C4007F03EA87FB870895DE011C960E94770367
:1006D4000E947F030895109639F0A89580ED97E065
:1006E4000197F1F71197C9F708950024AF0DB01DD4
:1006F4000895F195E195F0400895ED91FC911197DD
:1007040008950590F491E02D08957A936A93FA93ED
:10071400EA9308955A934A933A932A931A930A931D
:1007240008955D814C813B812A8119810881089556
:00000001FF
