:0600000037C0FECFFDCF6A
:10000600FCCFFBCFFACFF9CFF8CFF7CFF6CFF5CFAE
:10001600F4CFF3CFF2CFF1CFF0CFEFCFEECFEDCFDE
:100026000000313339344C6F636B203A204F46461B
:1000360000506173733A20004C6F636B203A204F77
:100046004E00496E76616C69642050617373776FF8
:100056007264000080C001000500260004006001F3
:10006600280002006A015A000000F894EE27ECBB53
:10007600F1E0FBBFEBBFE5BF8DE0A2E0BB27ED9350
:100086008A95E9F780E094E0A0E6ED930197E9F719
:10009600ECE5F0E085919591009761F0A591B59119
:1000A60005901590BF01F00105900D920197E1F7BB
:1000B600FB01F0CFEFE5EDBFE4E0EEBFC0E6D1E037
:1000C60000C0A09AE0EFE1BBA0E10AD1A89832D126
:1000D600ACE2B0E0F2D0E0E0EA93A1E0C2D0A7E360
:1000E600B0E0EBD03FD01E2F1F3FE1F3A4EFB1E00D
:1000F60052D138D0EF3FE9F71A3019F420D124D184
:100106002FC01B30F9F4E52DF0E0EB59FE4FA0E0CF
:10011600A08315D1A0E6B1E069D0E03049F4A89AF1
:1001260009D1AEE3B0E0C9D01DD0EA30E9F707C087
:10013600A5D0A8E4B0E0C1D0A0EDB7E02CD1FFD0A7
:1001460003D10EC0E4E05E1650F4A52DB0E0AB5925
:10015600BE4FE12FE05DEC935394AAE299D0C2CF53
:10016600B5CFFFCF22D11FEF9498F3D059F0F6D038
:1001760011F411E007C0F8D011F412E003C0F8D072
:1001860009F413E0949A9598E4D059F0E7D011F465
:1001960014E007C0E9D011F415E003C0E9D009F472
:1001A60016E0959A9698D5D059F0D8D011F417E064
:1001B60007C0DAD011F418E003C0DAD009F419E068
:1001C600969A9798C6D059F0C9D011F41AE007C08C
:1001D600CBD011F410E003C0CBD009F41BE0979A02
:1001E600EFEFE2BBE12F099119910895BA93AA9313
:1001F600E991F991A991B9916D917191671721F4DE
:100206006623D1F7EE270895671BE1F3E1E008F4D2
:10021600E2500895BA93AA93E991F991A991B991F7
:10022600CD0105900D920020E1F7FC010895AA93F7
:10023600E8B3EF70AE2FE881E07FEA2BE8BB9CD0F5
:10024600C29A9AD0C29898D073C0AA93A881EFDFB9
:10025600E881E295E883A881EADF85E88A95F1F7E7
:1002660067C0AA93E881F0E0E659FE4FE081A981D4
:10027600AE0FEBDF4980788022960895A2E080D009
:10028600ACE0E3DFA1E07CD0E0E07E2E4E2E0895C8
:10029600AA93A881AA3011F0461448F0E0E0EA9348
:1002A6007394A72DDEDFA881AA3009F441C04394D8
:1002B600C09AA881CADFC0983BC0BA93AA931A9382
:1002C600E981FA813196E983FA833197E4911E2F09
:1002D600E03019F0A12FDCDFF3CF188123960895C3
:1002E600AA93E7B3E06FE7BBBA9AB89AB99AC298ED
:1002F600C098C1986880E881E058E0936C01E88175
:10030600E054E0936D01A4E1B0E045D03DD03CD08F
:100316003BD0A0E28CDF88EC90E00197F1F7A8E2F1
:1003260094DFA4E092DFA5E890DFA6E08EDFA6DFEB
:1003360021960895A3DFE3E0EA93A0E092CFE5E6F5
:10034600F1E0FA93EA930895A6E3B0E063DF55245B
:100356000895E0B3E7700E2F07300895E02FF0E020
:10036600E630A0E0FA070895E530A0E0FA07089520
:10037600E330A0E0FA0708958DE08A95F1F7089535
:1003860064DFA3E0B0E007C0A0E351DF88EC90E0B3
:100396000197F1F70895109639F080ED97E00197EF
:1003A600F1F7A8951197C9F708951A930A93089536
:00000001FF
